:1000000035C000005AC0000058C0000056C00000B3
:1000100054C0000052C0000050C000004EC000009C
:100020004CC000004AC0000048C0000046C00000AC
:1000300044C0000042C0000040C000003EC00000BC
:100040003CC000003AC000008AC40000B3C40000F5
:1000500034C0000079C0000030C000002EC0000095
:100060002CC000002AC0000033078A0811241FBEDC
:10007000CFEFD8E0DEBFCDBF11E0A0E0B1E0E6E514
:10008000F9E102C005900D92A834B107D9F711E04B
:10009000A8E4B1E001C01D92A43FB107E1F710E070
:1000A000CCE6D0E004C02297FE010E94D308C836F7
:1000B000D107C9F7E4D60C94A90CA2CFCF93DF9354
:1000C000CDB7DEB7F89481E0DF91CF910895CF935B
:1000D000DF9300D0CDB7DEB79A83898378940F90F1
:1000E0000F90DF91CF910895CF93DF9300D0CDB7DC
:1000F000DEB78CE790E0FC018081882F90E08F7064
:1001000099279A83898388E790E0FC018081282FD2
:1001100030E089E790E0FC018081882F90E0982F03
:100120008827822B932B9C0189819A81880F991FA4
:10013000885B9E4FFC0180819181B901A4D10F9011
:100140000F90DF91CF9108951F920F9200905F0062
:100150000F9211242F933F934F935F936F937F934D
:100160008F939F93AF93BF93EF93FF93CF93DF93BF
:10017000CDB7DEB7B9DFDF91CF91FF91EF91BF919E
:10018000AF919F918F917F916F915F914F913F912F
:100190002F910F9000925F000F901F901895CF93B2
:1001A000DF9300D000D01F92CDB7DEB79A8389834A
:1001B0006B834C832D8389819A8103969CD189819D
:1001C0009A81859698D18B81882F90E029813A81F8
:1001D0002D5F3F4F880F991F885B9E4FFC01318335
:1001E000208389819A812B81FC01208389819A81D6
:1001F0002C81FC01218389819A812D81FC0122833C
:1002000089819A81FC01228189819A81FC01418145
:1002100089819A81FC01308189819A81632F8CD0F8
:1002200089819A81D0D089819A814CD00F900F908A
:100230000F900F900F90DF91CF910895CF93DF93A0
:10024000CDB7DEB728970FB6F894DEBF0FBECDBF8F
:1002500098878F838F819885CBD09A838983898172
:100260009A81929582958F7089279F7089279A83AA
:10027000898389819A819C0140E050E088E893E17C
:10028000DC0154D7DC01CB018B839C83AD83BE831F
:100290008B819C81AD81BE81072E7AE0B695A795B2
:1002A000979587957A95D1F7702D9A83898389815F
:1002B0009A8128960FB6F894DEBF0FBECDBFDF91AE
:1002C000CF910895CF93DF9300D0CDB7DEB79A8357
:1002D00089838CE790E02CE730E0F90120812F7DC5
:1002E000FC0120838AE790E02AE730E0F9012081D1
:1002F0002062FC0120838BE790E02BE730E0F901DE
:100300002081287FFC0120838AE790E02AE730E003
:10031000F90120812860FC01208378948AE790E02D
:100320002AE730E0F90120812064FC0120830F904E
:100330000F90DF91CF910895CF93DF9300D000D03D
:100340001F92CDB7DEB79A8389836B834C832D834D
:100350008CE790E02CE730E0F9012081422F2D81DD
:10036000222F30E00024369527950794369527955F
:100370000794322F202D242BFC0120838CE790E062
:100380002CE730E0F9012081207FFC0120838CE7FD
:1003900090E02CE730E0F90130812B81232BFC0128
:1003A00020838AE790E02AE730E0F90130812C8150
:1003B000232BFC0120830F900F900F900F900F9034
:1003C000DF91CF910895CF93DF9300D0CDB7DEB703
:1003D0009A8389838AE790E02AE730E0F901208157
:1003E0002068FC0120830F900F90DF91CF9108953A
:1003F000CF93DF93CDB7DEB728970FB6F894DEBF63
:100400000FBECDBF98878F831A8219821E8256DE57
:100410008B830EC08F8198852F81388542E2F90148
:100420003396DC01959601900D924A95E1F71B8277
:100430008B81882379F7CE01069649DE1D821C82C6
:1004400012C08F81988585962C813D81B9016FD02E
:1004500029813A81820F931F9A8389838C819D81A0
:1004600001969D838C838C819D81803191054CF315
:1004700089819A8128960FB6F894DEBF0FBECDBF52
:10048000DF91CF910895CF93DF9300D000D0CDB707
:10049000DEB79A8389837C836B8389819A81FC018F
:1004A000808191818031910539F089819A81FC01A7
:1004B00080819181019602C080E090E029813A819B
:1004C000F9019183808389819A81FC0180819181E6
:1004D00029813A810196880F991F820F931F2B81E2
:1004E0003C81FC01318320830F900F900F900F907F
:1004F000DF91CF910895CF93DF9300D0CDB7DEB7D2
:100500009A83898320E230E089819A810296A90149
:1005100060E070E058D789819A812FE030E0FC01DB
:10052000318320830F900F90DF91CF910895CF9367
:10053000DF9300D000D000D0CDB7DEB79C838B8393
:100540007E836D838B819C81FC01208131818D8133
:100550009E81A901481B590BCA018F7099279A8364
:1005600089832B813C8189819A810196880F991F0B
:10057000820F931FFC018081918126960FB6F8941B
:10058000DEBF0FBECDBFDF91CF910895EF920F93E5
:10059000CF93DF93CDB7DEB72A970FB6F894DEBFBF
:1005A0000FBECDBF998788876A87E12C00E023E0E2
:1005B00040E855E260E070E0CE01019626D28885E1
:1005C00099859E012F5F3F4FFC01318320838885F1
:1005D00099852A85FC0122832A960FB6F894DEBFFE
:1005E0000FBECDBFDF91CF910F91EF900895CF93C4
:1005F000DF9300D000D0CDB7DEB79A8389837C83A8
:100600006B8389819A81FC018281882349F08981E9
:100610009A81FC01808191812B813C81B901D8D2E2
:100620000F900F900F900F90DF91CF910895CF937F
:10063000DF93CDB7DEB72E970FB6F894DEBF0FBEAF
:10064000CDBF9C878B877E876D878E858F938D85A9
:100650008F9386E091E0892F8F9386E091E08F93CE
:10066000CE010196892F8F93CE0101968F93B2D63A
:100670000F900F900F900F900F900F908B859C858F
:100680009E012F5F3F4FB901B2DF2E960FB6F8944F
:10069000DEBF0FBECDBFDF91CF910895CF93DF9323
:1006A00000D000D01F92CDB7DEB79A8389837C83B8
:1006B0006B834D8389819A812B813C81FC0131833D
:1006C000208389819A81FC01808191818830910504
:1006D00054F4209104013091050189819A81FC0133
:1006E0003383228335C089819A81FC018081918185
:1006F0008E309105BCF02091020130910301898177
:100700009A81FC013383228389819A81FC01808153
:1007100091819C012E50310989819A81FC0131839C
:10072000208316C0209100013091010189819A81B6
:10073000FC013383228389819A81FC01808191812C
:100740009C012850310989819A81FC0131832083E1
:100750008D81482F50E089819A81FC01208131816F
:1007600089819A81FC0182819381B90127D00F9000
:100770000F900F900F900F90DF91CF910895CF932E
:10078000DF9300D000D0CDB7DEB79A8389837C8316
:100790006B8389819A81FC012081318189819A81D1
:1007A000FC01828193814B815C81B90149D00F901A
:1007B0000F900F900F90DF91CF910895CF93DF931B
:1007C00000D000D000D0CDB7DEB79A8389837C8378
:1007D0006B835E834D838D819E810097A1F089811B
:1007E0009A81FC018181282F81E090E00B8002C07A
:1007F000880F991F0A94E2F7822B282F89819A810A
:10080000FC01218314C089819A81FC018181282FF8
:1008100081E090E00B8002C0880F991F0A94E2F7F4
:1008200080958223282F89819A81FC012183269635
:100830000FB6F894DEBF0FBECDBFDF91CF91089504
:10084000CF93DF9300D000D000D0CDB7DEB79A832E
:1008500089837C836B835E834D838D819E8100972A
:10086000A1F089819A81FC018281282F81E090E0AA
:100870000B8002C0880F991F0A94E2F7822B282F61
:1008800089819A81FC01228314C089819A81FC01AB
:100890008281282F81E090E00B8002C0880F991F91
:1008A0000A94E2F780958223282F89819A81FC019E
:1008B000228326960FB6F894DEBF0FBECDBFDF9120
:1008C000CF910895CF93DF93CDB7DEB786EC90E05C
:1008D000FC018081682F8AE591E0CFD1DF91CF9133
:1008E00008950F931F93CF93DF93CDB7DEB780E8C2
:1008F00091E01BD221E0181619060CF020E022230B
:1009000041F006EC10E080E891E020D2F80180830D
:1009100001C005D0DF91CF911F910F910895CF9322
:10092000DF93CDB7DEB781EC90E021EC30E0F90148
:1009300020812F7DFC012083DF91CF910895CF93FB
:10094000DF93CDB7DEB781EC90E021EC30E0F90128
:1009500020812062FC012083DF91CF9108951F92B6
:100960000F9200905F000F9211242F933F934F93AB
:100970005F936F937F938F939F93AF93BF93EF9307
:10098000FF93CF93DF93CDB7DEB79CDFDF91CF919D
:10099000FF91EF91BF91AF919F918F917F916F9157
:1009A0005F914F913F912F910F9000925F000F90B8
:1009B0001F9018951F920F9200905F000F921124C4
:1009C0002F933F934F935F936F937F938F939F9357
:1009D000AF93BF93EF93FF93CF93DF93CDB7DEB782
:1009E00080DFDF91CF91FF91EF91BF91AF919F9108
:1009F0008F917F916F915F914F913F912F910F90C8
:100A000000925F000F901F901895EF920F93CF9375
:100A1000DF93CDB7DEB72F970FB6F894DEBF0FBECA
:100A2000CDBF9C838B834D835E836F8378872987BB
:100A30000A87EB862B813C818D819E81AF81B885B1
:100A4000F90180839183A283B3838B819C81298563
:100A5000FC0124838B819C812A85FC0125838B8169
:100A60009C812B85FC0126838B819C81FC018081EC
:100A70009181A281B381880F991FAA1FBB1F880F84
:100A8000991FAA1FBB1F880F991FAA1FBB1F880F82
:100A9000991FAA1FBB1F9C01AD0180E094E2A4EF47
:100AA000B0E0BC01CD014CD3DA01C90101979A83B2
:100AB000898385EC90E029813A81232F3327FC013B
:100AC000208384EC90E02981FC0120838B819C8130
:100AD000A4D08B819C81FC0184818330E1F481EC82
:100AE00090E021EC30E0F90120812460FC012083BA
:100AF00082EC90E022EC30E0F9012081422F2B8142
:100B00003C81F9012481222F30E0220F331F242B56
:100B1000FC01208312C082EC90E022EC30E0F9016D
:100B20002081422F2B813C81F9012481222F30E04A
:100B3000220F331F242BFC01208382EC90E022EC57
:100B400030E0F9012081422F2B813C81F901258180
:100B5000222F30E022953295307F3227207F3227B6
:100B6000242BFC01208382EC90E022EC30E0F901A0
:100B70002081422F2B813C81F9012681222F30E0F8
:100B8000220F331F220F331F220F331F242BFC0190
:100B900020832F960FB6F894DEBF0FBECDBFDF9136
:100BA000CF910F91EF900895CF93DF9300D01F92D4
:100BB000CDB7DEB79A8389836B836B8180E891E040
:100BC0005CD0BDDE0F900F900F90DF91CF91089514
:100BD000CF93DF9300D000D0CDB7DEB79A8389835F
:100BE0007C836B830DC08B819C81FC01208189817A
:100BF0009A81622FD9DF8B819C8101969C838B83A4
:100C00008B819C81FC018081882369F70F900F9074
:100C10000F900F90DF91CF910895CF93DF9300D085
:100C2000CDB7DEB79A83898381EC90E021EC30E088
:100C3000F90120812061FC01208381EC90E021EC0E
:100C400030E0F90120812860FC01208381EC90E0F4
:100C500021EC30E0F90120812068FC01208381EC47
:100C600090E021EC30E0F90120812062FC0120833A
:100C70000F900F90DF91CF910895CF93DF9300D025
:100C80001F92CDB7DEB79A8389836B8389819A815E
:100C9000FC01828193819C012F5F3F4F89819A8162
:100CA000FC01808191812817390779F089819A8127
:100CB000FC01828193818F31910541F489819A8170
:100CC000FC0180819181009709F429C089819A8172
:100CD000FC018281938129813A81820F931F0696BC
:100CE0002B81FC01208389819A81FC01828193817F
:100CF00001969C012F71332789819A81FC013383EE
:100D0000228389819A81FC01848195819C012F5FD6
:100D10003F4F89819A81FC013583248300000F9025
:100D20000F900F90DF91CF910895CF93DF9300D074
:100D3000CDB7DEB79A83898389819A81FC0184814A
:100D400095810F900F90DF91CF910895CF93DF930E
:100D500000D01F92CDB7DEB79B838A8319828A8128
:100D60009B81FC01228133818A819B81FC018081EE
:100D700091812817390711F4898129C08A819B81C3
:100D8000FC01808191812A813B81820F931F06960D
:100D9000FC01808189838A819B81FC018081918112
:100DA00001969C012F7133278A819B81FC0131833D
:100DB00020838A819B81FC01848195819C01215043
:100DC00031098A819B81FC013583248389810F90BD
:100DD0000F900F90DF91CF910895CF93DF9300D0C4
:100DE000CDB7DEB79A83898320E230E089819A818A
:100DF0000696A90160E070E0E6D289819A81FC0143
:100E00001182108289819A81FC0113821282898168
:100E10009A81FC01158214820F900F90DF91CF917F
:100E20000895CF93DF9300D000D0CDB7DEB79A837B
:100E300089837C836B8389819A818130910561F4F8
:100E40008B819C818F3F2FEF920731F48AE591E0EF
:100E5000C4DF80E891E0C1DF0F900F900F900F90FA
:100E6000DF91CF910895CF93DF93CDB7DEB76FEFCA
:100E70007FEF81E090E0D5DFDF91CF910895CF93B0
:100E8000DF93CDB7DEB76E970FB6F894DEBF0FBE17
:100E9000CDBF6DE071E08AEA91E0A9DB8DEA91E0D7
:100EA000CDD99A83898389819A81883B2BE09207E7
:100EB00008F482C061E070E086EA91E060DC64E101
:100EC00071E08AEA91E093DB89819A81BC018AEA28
:100ED00091E0ADDB6DE171E08AEA91E088DB80E0D2
:100EE00090E0AAE7B4E48B839C83AD83BE8320E0CB
:100EF00030E04AE755E46B817C818D819E81D8D1B9
:100F0000DC01CB018F839887A987BA8720E030E086
:100F100040E85FE36F81788589859A8548D1882389
:100F20002CF481E090E09C878B873BC020E03FEF72
:100F30004FE757E46F81788589859A85B5D1181672
:100F40003CF520E030E040E251E46B817C818D8112
:100F50009E81AED1DC01CB01BC01CD012CD1DC01E5
:100F6000CB019C878B870FC080E991E09E878D879E
:100F70008D859E850197F1F79E878D878B859C8552
:100F800001979C878B878B859C85009769F786CF17
:100F90006F81788589859A850ED1DC01CB019C878C
:100FA0008B878B859C85988B8F878F8598890197F8
:100FB000F1F7988B8F8772CF60E070E086EA91E05E
:100FC000DEDB6DE271E08AEA91E011DB89819A81D2
:100FD000BC018AEA91E02BDB67E371E08AEA91E0E9
:100FE00006DB80E090E0AAE7B4E4898B9A8BAB8BB8
:100FF000BC8B20E030E04AE755E469897A898B8927
:101000009C8956D1DC01CB018D8B9E8BAF8BB88F29
:1010100020E030E040E85FE36D897E898F89988D1C
:10102000C6D088232CF481E090E09A8F898F3BC052
:1010300020E03FEF4FE757E46D897E898F89988DD7
:1010400033D118163CF520E030E040E251E46989E4
:101050007A898B899C892CD1DC01CB01BC01CD0123
:10106000AAD0DC01CB019A8F898F0FC080E991E073
:101070009C8F8B8F8B8D9C8D0197F1F79C8F8B8F25
:10108000898D9A8D01979A8F898F898D9A8D009776
:1010900069F704CF6D897E898F89988D8CD0DC01AA
:1010A000CB019A8F898F898D9A8D9E8F8D8F8D8D93
:1010B0009E8D0197F1F79E8F8D8FF0CECF93DF93AA
:1010C00000D000D0CDB7DEB79A8389837C836B8351
:1010D00089819A8181309105B1F48B819C818F3F08
:1010E0002FEF920781F441E06DE070E086EA91E035
:1010F000D5DA61E08AEA91E049DA21E047E060E090
:101100008DEA91E04CD80F900F900F900F90DF91E7
:10111000CF910895CF93DF93CDB7DEB76FEF7FEF19
:1011200081E090E0CBDFDF91CF9108952BD0A59F98
:10113000900DB49F900DA49F800D911D11240895D2
:10114000A1E21A2EAA1BBB1BFD010DC0AA1FBB1FCB
:10115000EE1FFF1FA217B307E407F50720F0A21B3D
:10116000B30BE40BF50B661F771F881F991F1A94AA
:1011700069F760957095809590959B01AC01BD01D4
:10118000CF010895A29FB001B39FC001A39F700D2E
:10119000811D1124911DB29F700D811D1124911D7F
:1011A0000895EE0FFF1F0590F491E02D09942FD0C4
:1011B00008F481E0089557D088F09F5790F0B92F38
:1011C0009927B751A0F0D1F0660F771F881F991F9C
:1011D0001AF0BA95C9F712C0B13081F05ED0B1E013
:1011E00008955BC0672F782F8827B85F39F0B93F23
:1011F000CCF3869577956795B395D9F73EF490959E
:101200008095709561957F4F8F4F9F4F0895990FEF
:101210000008550FAA0BE0E8FEEF16161706E807C0
:10122000F907C0F012161306E407F50798F0621BE1
:10123000730B840B950B39F40A2661F0232B242BB6
:10124000252B21F408950A2609F4A140A6958FEFD5
:10125000811D811D089557FD9058440F551F59F069
:101260005F3F71F04795880F97FB991F61F09F3F93
:1012700079F087950895121613061406551FF2CFBC
:101280004695F1DF08C0161617061806991FF1CF0C
:1012900086957105610508940895E894BB27662733
:1012A0007727CB0197F90895B2DF08F48FEF0895FF
:1012B0000BD078C069D028F06ED018F0952309F0D3
:1012C0005AC05FC01124EACFC6DFA0F3959FD1F3C7
:1012D000950F50E0551F629FF001729FBB27F00DE4
:1012E000B11D639FAA27F00DB11DAA1F649F662739
:1012F000B00DA11D661F829F2227B00DA11D621F88
:10130000739FB00DA11D621F839FA00D611D221F41
:10131000749F3327A00D611D231F849F600D211D25
:10132000822F762F6A2F11249F5750408AF0E1F0C8
:1013300088234AF0EE0FFF1FBB1F661F771F881F11
:1013400091505040A9F79E3F510570F014C0A6CFB0
:101350005F3FECF3983EDCF3869577956795B795FC
:10136000F795E7959F5FC1F7FE2B880F911D969526
:10137000879597F9089597F99F6780E870E060E096
:1013800008959FEF80EC089500240A94161617061E
:1013900018060906089500240A9412161306140666
:1013A00005060895092E0394000C11F4882352F0C9
:1013B000BB0F40F4BF2B11F460FF04C06F5F7F4F81
:1013C0008F4F9F4F0895DC0101C06D9341505040F5
:1013D000E0F70895AEE0B0E0EFEEF9E091C20D89DC
:1013E0001E8986E08C831A8309838FEF9FE79E8393
:1013F0008D83AE01475E5F4F6F89788DCE01019678
:1014000008D0EF81F885E00FF11F10822E96E4E0FE
:1014100093C2ACE0B0E0EEE0FAE064C27C016B01A4
:101420008A01FC0117821682838181FFB0C1CE013F
:1014300001964C01F7019381F60193FD859193FF8D
:1014400081916F01882309F49EC1853239F493FD9F
:10145000859193FF81916F01853221F4B70190E06E
:10146000B1D1E8CF512C312C20E02032A0F48B32C6
:1014700069F030F4803259F0833269F420612CC075
:101480008D3239F0803339F4216026C02260246027
:1014900023C0286021C027FD27C030ED380F3A3027
:1014A00078F426FF06C0FAE05F9E300D1124532E1B
:1014B00013C08AE0389E300D1124332E20620CC0F8
:1014C0008E3221F426FD5FC1206406C08C3611F4F3
:1014D000206802C0883641F4F60193FD859193FFA0
:1014E00081916F018111C1CF982F9F7D95549330C9
:1014F00028F40C5F1F4FFFE3F9830DC0833631F0F2
:10150000833771F0833509F057C021C0F80180811D
:1015100089830E5F1F4F44244394512C540114C0FF
:101520003801F2E06F0E711CF801A080B18026FF37
:1015300003C0652D70E002C06FEF7FEFC5012C87FF
:1015400036D12C0183012C852F77222E16C038012D
:10155000F2E06F0E711CF801A080B18026FF03C07D
:10156000652D70E002C06FEF7FEFC5012C8714D1AD
:101570002C012C852068222E830123FC19C0832D89
:1015800090E048165906A0F4B70180E290E01AD125
:101590003A94F5CFF50127FC859127FE81915F01F3
:1015A000B70190E00FD131103A94F1E04F1A510891
:1015B0004114510479F7DEC0843611F0893631F5D3
:1015C000F80127FF07C060817181828193810C5FE0
:1015D0001F4F08C060817181882777FD8095982F03
:1015E0000E5F1F4F2F76B22E97FF09C09095809502
:1015F000709561957F4F8F4F9F4F2068B22E2AE0E4
:1016000030E0A40111D1A82EA81843C0853729F4D1
:101610002F7EB22E2AE030E025C0F22FF97FBF2EB8
:101620008F36C1F018F4883579F0ADC0803719F0E5
:10163000883721F0A8C02F2F2061B22EB4FE0DC034
:101640008B2D8460B82E09C024FF0AC09F2F96609E
:10165000B92E06C028E030E005C020E130E002C02D
:1016600020E132E0F801B7FE07C06081718182811C
:1016700093810C5F1F4F06C06081718180E090E014
:101680000E5F1F4FA401D0D0A82EA818FB2DFF7706
:10169000BF2EB6FE0BC02B2D2E7FA51450F4B4FE2A
:1016A0000AC0B2FC08C02B2D2E7E05C07A2C2B2D33
:1016B00003C07A2C01C0752C24FF0DC0FE01EA0D79
:1016C000F11D8081803311F4297E09C022FF06C0FC
:1016D0007394739404C0822F867809F0739423FD69
:1016E00012C020FF06C05A2C731418F4530C57185C
:1016F000732C731460F4B70180E290E02C8762D001
:1017000073942C85F6CF731410F4371801C0312C64
:1017100024FF11C0B70180E390E02C8753D02C85C3
:1017200022FF16C021FF03C088E590E002C088E7D1
:1017300090E0B7010CC0822F867851F021FD02C0E5
:1017400080E201C08BE227FD8DE2B70190E03AD044
:10175000A51430F4B70180E390E034D05A94F8CF68
:10176000AA94F401EA0DF11D8081B70190E02AD01E
:10177000A110F6CF332009F45DCEB70180E290E0EE
:1017800021D03A94F7CFF7018681978102C08FEF7D
:101790009FEF2C96E2E1C2C0FC01059061507040C1
:1017A0000110D8F7809590958E0F9F1F0895FC012A
:1017B0006150704001900110D8F7809590958E0F80
:1017C0009F1F08950F931F93CF93DF93182F092F17
:1017D000EB018B8181FD03C08FEF9FEF20C082FF63
:1017E00010C04E815F812C813D81421753077CF4EC
:1017F000E881F9819F012F5F3F4F39832883108350
:1018000006C0E885F985812F0995892B29F72E8156
:101810003F812F5F3F4F3F832E83812F902FDF919A
:10182000CF911F910F910895FA01AA27283051F105
:10183000203181F1E8946F936E7F6E5F7F4F8F4F01
:101840009F4FAF4FB1E03ED0B4E03CD0670F781F60
:10185000891F9A1FA11D680F791F8A1F911DA11D45
:101860006A0F711D811D911DA11D20D009F468947E
:101870003F912AE0269F11243019305D3193DEF626
:10188000CF010895462F4770405D4193B3E00FD0DC
:10189000C9F7F6CF462F4F70405D4A3318F0495DC7
:1018A00031FD4052419302D0A9F7EACFB4E0A695AA
:1018B0009795879577956795BA95C9F700976105CC
:1018C000710508959B01AC010A2E06945795479522
:1018D00037952795BA95C9F7620F731F841F951F17
:1018E000A01D08952F923F924F925F926F927F9228
:1018F0008F929F92AF92BF92CF92DF92EF92FF9220
:101900000F931F93CF93DF93CDB7DEB7CA1BDB0BCB
:101910000FB6F894DEBF0FBECDBF09942A88398870
:1019200048885F846E847D848C849B84AA84B98477
:10193000C884DF80EE80FD800C811B81AA81B98183
:10194000CE0FD11D0FB6F894DEBF0FBECDBFED0197
:061950000895F894FFCF9A
:10195600230026002900256400256C750072657336
:1019660065740A00566F6C746167653A00206D569F
:10197600202D204C6564204F6E21200A00566F6C86
:10198600746167653A2000206D56202D204C6564F1
:08199600204F666621200A00C3
:00000001FF
